{
  "transactions": [
    {
      "hash": "0xe2de26f9ad27cf56a151e69f930227cc4e249883764c8ce1a240c553d571a385",
      "transactionType": "CALL",
      "contractName": null,
      "contractAddress": "0x1c5b14cb76aee77b3c66a4ac56731d67bce17dfb",
      "function": "approve(address,uint256)",
      "arguments": [
        "0x000000000022D473030F116dDEE9F6B43aC78BA3",
        "115792089237316195423570985008687907853269984665640564039457584007913129639935"
      ],
      "transaction": {
        "from": "0x34ff7335233faf283bc6ad63bf9fc2bb7dfb433a",
        "to": "0x1c5b14cb76aee77b3c66a4ac56731d67bce17dfb",
        "gas": "0x10c49",
        "value": "0x0",
        "input": "0x095ea7b3000000000000000000000000000000000022d473030f116ddee9f6b43ac78ba3ffffffffffffffffffffffffffffffffffffffffffffffffffffffffffffffff",
        "nonce": "0x3",
        "chainId": "0xc4"
      },
      "additionalContracts": [],
      "isFixedGasLimit": false
    },
    {
      "hash": "0xe70a9170cd5c130ea93d74601f4428a2029d2ef2c545f9442db6acc1233841e2",
      "transactionType": "CALL",
      "contractName": null,
      "contractAddress": "0x000000000022d473030f116ddee9f6b43ac78ba3",
      "function": "approve(address,address,uint160,uint48)",
      "arguments": [
        "0x1C5b14cb76AEE77B3c66a4aC56731D67BCe17DFb",
        "0xcF1EAFC6928dC385A342E7C6491d371d2871458b",
        "1461501637330902918203684832716283019655932542975",
        "281474976710655"
      ],
      "transaction": {
        "from": "0x34ff7335233faf283bc6ad63bf9fc2bb7dfb433a",
        "to": "0x000000000022d473030f116ddee9f6b43ac78ba3",
        "gas": "0x1112d",
        "value": "0x0",
        "input": "0x87517c450000000000000000000000001c5b14cb76aee77b3c66a4ac56731d67bce17dfb000000000000000000000000cf1eafc6928dc385a342e7c6491d371d2871458b000000000000000000000000ffffffffffffffffffffffffffffffffffffffff0000000000000000000000000000000000000000000000000000ffffffffffff",
        "nonce": "0x4",
        "chainId": "0xc4"
      },
      "additionalContracts": [],
      "isFixedGasLimit": false
    },
    {
      "hash": "0xd852f5cdf3ad97e48d9f1f6fd7c626bb054439e78dfca0db67d61dd2efbcc612",
      "transactionType": "CALL",
      "contractName": null,
      "contractAddress": "0xa89c0904233aeccb5f6d8f43738891301222ac02",
      "function": "approve(address,uint256)",
      "arguments": [
        "0x000000000022D473030F116dDEE9F6B43aC78BA3",
        "115792089237316195423570985008687907853269984665640564039457584007913129639935"
      ],
      "transaction": {
        "from": "0x34ff7335233faf283bc6ad63bf9fc2bb7dfb433a",
        "to": "0xa89c0904233aeccb5f6d8f43738891301222ac02",
        "gas": "0x10c49",
        "value": "0x0",
        "input": "0x095ea7b3000000000000000000000000000000000022d473030f116ddee9f6b43ac78ba3ffffffffffffffffffffffffffffffffffffffffffffffffffffffffffffffff",
        "nonce": "0x5",
        "chainId": "0xc4"
      },
      "additionalContracts": [],
      "isFixedGasLimit": false
    },
    {
      "hash": "0x51ff521b489161185f1bb45ccd881f7b4b9eb67538b2e06e5af86255ab8e1653",
      "transactionType": "CALL",
      "contractName": null,
      "contractAddress": "0x000000000022d473030f116ddee9f6b43ac78ba3",
      "function": "approve(address,address,uint160,uint48)",
      "arguments": [
        "0xA89C0904233AECCb5f6d8f43738891301222ac02",
        "0xcF1EAFC6928dC385A342E7C6491d371d2871458b",
        "1461501637330902918203684832716283019655932542975",
        "281474976710655"
      ],
      "transaction": {
        "from": "0x34ff7335233faf283bc6ad63bf9fc2bb7dfb433a",
        "to": "0x000000000022d473030f116ddee9f6b43ac78ba3",
        "gas": "0x1112d",
        "value": "0x0",
        "input": "0x87517c45000000000000000000000000a89c0904233aeccb5f6d8f43738891301222ac02000000000000000000000000cf1eafc6928dc385a342e7c6491d371d2871458b000000000000000000000000ffffffffffffffffffffffffffffffffffffffff0000000000000000000000000000000000000000000000000000ffffffffffff",
        "nonce": "0x6",
        "chainId": "0xc4"
      },
      "additionalContracts": [],
      "isFixedGasLimit": false
    },
    {
      "hash": "0xe0ec7b2da530b66ef9523d7154f51273b23f7722145ec9e4a626180afa20db73",
      "transactionType": "CALL",
      "contractName": null,
      "contractAddress": "0xcf1eafc6928dc385a342e7c6491d371d2871458b",
      "function": "multicall(bytes[])",
      "arguments": [
        "[0xf70204050000000000000000000000001c5b14cb76aee77b3c66a4ac56731d67bce17dfb000000000000000000000000a89c0904233aeccb5f6d8f43738891301222ac020000000000000000000000000000000000000000000000000000000000800000000000000000000000000000000000000000000000000000000000000000003c00000000000000000000000054facbb2bfe6c818fe8087a6d86557b73fb600c0000000000000000000000000000000000000000100000000000000000000000000000000000000000000000000000000000000000000000000000000000000e00000000000000000000000000000000000000000000000000000000000000000, 0xdd46508f0000000000000000000000000000000000000000000000000000000000000040000000000000000000000000000000000000000000000000000000006a17c9470000000000000000000000000000000000000000000000000000000000000400000000000000000000000000000000000000000000000000000000000000004000000000000000000000000000000000000000000000000000000000000000800000000000000000000000000000000000000000000000000000000000000004020d14140000000000000000000000000000000000000000000000000000000000000000000000000000000000000000000000000000000000000000000000040000000000000000000000000000000000000000000000000000000000000080000000000000000000000000000000000000000000000000000000000000024000000000000000000000000000000000000000000000000000000000000002a0000000000000000000000000000000000000000000000000000000000000030000000000000000000000000000000000000000000000000000000000000001a00000000000000000000000001c5b14cb76aee77b3c66a4ac56731d67bce17dfb000000000000000000000000a89c0904233aeccb5f6d8f43738891301222ac020000000000000000000000000000000000000000000000000000000000800000000000000000000000000000000000000000000000000000000000000000003c00000000000000000000000054facbb2bfe6c818fe8087a6d86557b73fb600c0ffffffffffffffffffffffffffffffffffffffffffffffffffffffffffff5038000000000000000000000000000000000000000000000000000000000000afc80000000000000000000000000000000000000000000000060f4da7fe284f5dea0000000000000000000000000000000000000000000000056bc75e2d631000010000000000000000000000000000000000000000000000056bc75e2d6310000100000000000000000000000034ff7335233faf283bc6ad63bf9fc2bb7dfb433a0000000000000000000000000000000000000000000000000000000000000180000000000000000000000000000000000000000000000000000000000000000000000000000000000000000000000000000000000000000000000000000000400000000000000000000000001c5b14cb76aee77b3c66a4ac56731d67bce17dfb000000000000000000000000a89c0904233aeccb5f6d8f43738891301222ac0200000000000000000000000000000000000000000000000000000000000000400000000000000000000000001c5b14cb76aee77b3c66a4ac56731d67bce17dfb00000000000000000000000034ff7335233faf283bc6ad63bf9fc2bb7dfb433a0000000000000000000000000000000000000000000000000000000000000040000000000000000000000000a89c0904233aeccb5f6d8f43738891301222ac0200000000000000000000000034ff7335233faf283bc6ad63bf9fc2bb7dfb433a]"
      ],
      "transaction": {
        "from": "0x34ff7335233faf283bc6ad63bf9fc2bb7dfb433a",
        "to": "0xcf1eafc6928dc385a342e7c6491d371d2871458b",
        "gas": "0xa578a",
        "value": "0x0",
        "input": "0xac9650d800000000000000000000000000000000000000000000000000000000000000200000000000000000000000000000000000000000000000000000000000000002000000000000000000000000000000000000000000000000000000000000004000000000000000000000000000000000000000000000000000000000000001800000000000000000000000000000000000000000000000000000000000000104f70204050000000000000000000000001c5b14cb76aee77b3c66a4ac56731d67bce17dfb000000000000000000000000a89c0904233aeccb5f6d8f43738891301222ac020000000000000000000000000000000000000000000000000000000000800000000000000000000000000000000000000000000000000000000000000000003c00000000000000000000000054facbb2bfe6c818fe8087a6d86557b73fb600c0000000000000000000000000000000000000000100000000000000000000000000000000000000000000000000000000000000000000000000000000000000e00000000000000000000000000000000000000000000000000000000000000000000000000000000000000000000000000000000000000000000000000000000000000000000000000000000000000000000000000000000000000464dd46508f0000000000000000000000000000000000000000000000000000000000000040000000000000000000000000000000000000000000000000000000006a17c9470000000000000000000000000000000000000000000000000000000000000400000000000000000000000000000000000000000000000000000000000000004000000000000000000000000000000000000000000000000000000000000000800000000000000000000000000000000000000000000000000000000000000004020d14140000000000000000000000000000000000000000000000000000000000000000000000000000000000000000000000000000000000000000000000040000000000000000000000000000000000000000000000000000000000000080000000000000000000000000000000000000000000000000000000000000024000000000000000000000000000000000000000000000000000000000000002a0000000000000000000000000000000000000000000000000000000000000030000000000000000000000000000000000000000000000000000000000000001a00000000000000000000000001c5b14cb76aee77b3c66a4ac56731d67bce17dfb000000000000000000000000a89c0904233aeccb5f6d8f43738891301222ac020000000000000000000000000000000000000000000000000000000000800000000000000000000000000000000000000000000000000000000000000000003c00000000000000000000000054facbb2bfe6c818fe8087a6d86557b73fb600c0ffffffffffffffffffffffffffffffffffffffffffffffffffffffffffff5038000000000000000000000000000000000000000000000000000000000000afc80000000000000000000000000000000000000000000000060f4da7fe284f5dea0000000000000000000000000000000000000000000000056bc75e2d631000010000000000000000000000000000000000000000000000056bc75e2d6310000100000000000000000000000034ff7335233faf283bc6ad63bf9fc2bb7dfb433a0000000000000000000000000000000000000000000000000000000000000180000000000000000000000000000000000000000000000000000000000000000000000000000000000000000000000000000000000000000000000000000000400000000000000000000000001c5b14cb76aee77b3c66a4ac56731d67bce17dfb000000000000000000000000a89c0904233aeccb5f6d8f43738891301222ac0200000000000000000000000000000000000000000000000000000000000000400000000000000000000000001c5b14cb76aee77b3c66a4ac56731d67bce17dfb00000000000000000000000034ff7335233faf283bc6ad63bf9fc2bb7dfb433a0000000000000000000000000000000000000000000000000000000000000040000000000000000000000000a89c0904233aeccb5f6d8f43738891301222ac0200000000000000000000000034ff7335233faf283bc6ad63bf9fc2bb7dfb433a00000000000000000000000000000000000000000000000000000000",
        "nonce": "0x7",
        "chainId": "0xc4"
      },
      "additionalContracts": [],
      "isFixedGasLimit": false
    }
  ],
  "receipts": [
    {
      "type": "0x2",
      "status": "0x1",
      "cumulativeGasUsed": "0x5904e",
      "logs": [
        {
          "address": "0x1c5b14cb76aee77b3c66a4ac56731d67bce17dfb",
          "topics": [
            "0x8c5be1e5ebec7d5bd14f71427d1e84f3dd0314c0f7b2291e5b200ac8c7c3b925",
            "0x00000000000000000000000034ff7335233faf283bc6ad63bf9fc2bb7dfb433a",
            "0x000000000000000000000000000000000022d473030f116ddee9f6b43ac78ba3"
          ],
          "data": "0xffffffffffffffffffffffffffffffffffffffffffffffffffffffffffffffff",
          "blockHash": "0x6b36bd843b130e2e1f135ceaea462bcd3d4dae91d80eacfc5b35e94e9693404b",
          "blockNumber": "0x3a565bb",
          "blockTimestamp": "0x6a17bb47",
          "transactionHash": "0xe70a9170cd5c130ea93d74601f4428a2029d2ef2c545f9442db6acc1233841e2",
          "transactionIndex": "0x2",
          "logIndex": "0xf",
          "removed": false
        }
      ],
      "logsBloom": "0x00000000000000010000000000000000000000000000000000000000000000000000000000000000000000000000000000000000800000000000000000200000000000000000000000004000000000000000000000000800000000000000000000000000000000000000000000000000000000000000000000000000000000000000000000000080000000000000000000000000000000000000000000000000020000000000000000000000000000000800000000000000000000000000000000000000000000400000000000000000000000000000000000000000000000000010000000000000000000000000000000000000000000000200000000000020",
      "transactionHash": "0xe70a9170cd5c130ea93d74601f4428a2029d2ef2c545f9442db6acc1233841e2",
      "transactionIndex": "0x2",
      "blockHash": "0x6b36bd843b130e2e1f135ceaea462bcd3d4dae91d80eacfc5b35e94e9693404b",
      "blockNumber": "0x3a565bb",
      "gasUsed": "0xb772",
      "effectiveGasPrice": "0x1312d01",
      "blobGasUsed": "0x9c40",
      "from": "0x34ff7335233faf283bc6ad63bf9fc2bb7dfb433a",
      "to": "0x1c5b14cb76aee77b3c66a4ac56731d67bce17dfb",
      "contractAddress": null
    },
    {
      "type": "0x2",
      "status": "0x1",
      "cumulativeGasUsed": "0x64b18",
      "logs": [
        {
          "address": "0x000000000022d473030f116ddee9f6b43ac78ba3",
          "topics": [
            "0xda9fa7c1b00402c17d0161b249b1ab8bbec047c5a52207b9c112deffd817036b",
            "0x00000000000000000000000034ff7335233faf283bc6ad63bf9fc2bb7dfb433a",
            "0x0000000000000000000000001c5b14cb76aee77b3c66a4ac56731d67bce17dfb",
            "0x000000000000000000000000cf1eafc6928dc385a342e7c6491d371d2871458b"
          ],
          "data": "0x000000000000000000000000ffffffffffffffffffffffffffffffffffffffff0000000000000000000000000000000000000000000000000000ffffffffffff",
          "blockHash": "0x6b36bd843b130e2e1f135ceaea462bcd3d4dae91d80eacfc5b35e94e9693404b",
          "blockNumber": "0x3a565bb",
          "blockTimestamp": "0x6a17bb47",
          "transactionHash": "0xd852f5cdf3ad97e48d9f1f6fd7c626bb054439e78dfca0db67d61dd2efbcc612",
          "transactionIndex": "0x3",
          "logIndex": "0x10",
          "removed": false
        }
      ],
      "logsBloom": "0x00010000000000010000000000000000000000000000000000000000000000000000000000000000000000000000000000000000000000000040000000080000000000000000000000000000000000000000000000000000000000000000000000000000000000000000000000000000000000000000000040000000000000000020000000000000000000000000000000000000000000000000000000000000000000000000000000000000000000000000000000000000000000080002000000000000000000000000000000000000000000000000000040000040000000000000000000000000000004000000000000000000000000000240000000000420",
      "transactionHash": "0xd852f5cdf3ad97e48d9f1f6fd7c626bb054439e78dfca0db67d61dd2efbcc612",
      "transactionIndex": "0x3",
      "blockHash": "0x6b36bd843b130e2e1f135ceaea462bcd3d4dae91d80eacfc5b35e94e9693404b",
      "blockNumber": "0x3a565bb",
      "gasUsed": "0xbaca",
      "effectiveGasPrice": "0x1312d01",
      "blobGasUsed": "0xa8c0",
      "from": "0x34ff7335233faf283bc6ad63bf9fc2bb7dfb433a",
      "to": "0x000000000022d473030f116ddee9f6b43ac78ba3",
      "contractAddress": null
    },
    {
      "type": "0x2",
      "status": "0x1",
      "cumulativeGasUsed": "0x7028a",
      "logs": [
        {
          "address": "0xa89c0904233aeccb5f6d8f43738891301222ac02",
          "topics": [
            "0x8c5be1e5ebec7d5bd14f71427d1e84f3dd0314c0f7b2291e5b200ac8c7c3b925",
            "0x00000000000000000000000034ff7335233faf283bc6ad63bf9fc2bb7dfb433a",
            "0x000000000000000000000000000000000022d473030f116ddee9f6b43ac78ba3"
          ],
          "data": "0xffffffffffffffffffffffffffffffffffffffffffffffffffffffffffffffff",
          "blockHash": "0x6b36bd843b130e2e1f135ceaea462bcd3d4dae91d80eacfc5b35e94e9693404b",
          "blockNumber": "0x3a565bb",
          "blockTimestamp": "0x6a17bb47",
          "transactionHash": "0xe2de26f9ad27cf56a151e69f930227cc4e249883764c8ce1a240c553d571a385",
          "transactionIndex": "0x4",
          "logIndex": "0x11",
          "removed": false
        }
      ],
      "logsBloom": "0x00000000000000010000000000000000000000000000000000000000000000000000800000000000000000000000000000000000800000000000000000200000000000800000000000004000000000000000000000000800000000000000000000000000000000000000000000000000000000000000000000000000000000000000000000000000000000000000000000000000000000000000000000000000020000000000000000000000000000000000000000000000000000000000000000000000000000000000000000000000000000000000000000000000000000000010000000000000000000000000000000000000000000000200000020000020",
      "transactionHash": "0xe2de26f9ad27cf56a151e69f930227cc4e249883764c8ce1a240c553d571a385",
      "transactionIndex": "0x4",
      "blockHash": "0x6b36bd843b130e2e1f135ceaea462bcd3d4dae91d80eacfc5b35e94e9693404b",
      "blockNumber": "0x3a565bb",
      "gasUsed": "0xb772",
      "effectiveGasPrice": "0x1312d01",
      "blobGasUsed": "0x9c40",
      "from": "0x34ff7335233faf283bc6ad63bf9fc2bb7dfb433a",
      "to": "0xa89c0904233aeccb5f6d8f43738891301222ac02",
      "contractAddress": null
    },
    {
      "type": "0x2",
      "status": "0x1",
      "cumulativeGasUsed": "0x7bd54",
      "logs": [
        {
          "address": "0x000000000022d473030f116ddee9f6b43ac78ba3",
          "topics": [
            "0xda9fa7c1b00402c17d0161b249b1ab8bbec047c5a52207b9c112deffd817036b",
            "0x00000000000000000000000034ff7335233faf283bc6ad63bf9fc2bb7dfb433a",
            "0x000000000000000000000000a89c0904233aeccb5f6d8f43738891301222ac02",
            "0x000000000000000000000000cf1eafc6928dc385a342e7c6491d371d2871458b"
          ],
          "data": "0x000000000000000000000000ffffffffffffffffffffffffffffffffffffffff0000000000000000000000000000000000000000000000000000ffffffffffff",
          "blockHash": "0x6b36bd843b130e2e1f135ceaea462bcd3d4dae91d80eacfc5b35e94e9693404b",
          "blockNumber": "0x3a565bb",
          "blockTimestamp": "0x6a17bb47",
          "transactionHash": "0xe0ec7b2da530b66ef9523d7154f51273b23f7722145ec9e4a626180afa20db73",
          "transactionIndex": "0x5",
          "logIndex": "0x12",
          "removed": false
        }
      ],
      "logsBloom": "0x00010000000000010000000000000000000000000000000000000000004000000000000000000000000000000000000000000000000000000000000000080000000000000000000000000000000000000000000000000000000000000000000000000000000000000000000000000000000000000000000040000000000000000030000000000000000000000000000010000000000000000000000000000000000000000000000000000000000000000000000000000000000000080002000000000000000000000000000000000000000000000000000040000000000000000000000000000000000000000000000000000000000000000240000000000420",
      "transactionHash": "0xe0ec7b2da530b66ef9523d7154f51273b23f7722145ec9e4a626180afa20db73",
      "transactionIndex": "0x5",
      "blockHash": "0x6b36bd843b130e2e1f135ceaea462bcd3d4dae91d80eacfc5b35e94e9693404b",
      "blockNumber": "0x3a565bb",
      "gasUsed": "0xbaca",
      "effectiveGasPrice": "0x1312d01",
      "blobGasUsed": "0xa8c0",
      "from": "0x34ff7335233faf283bc6ad63bf9fc2bb7dfb433a",
      "to": "0x000000000022d473030f116ddee9f6b43ac78ba3",
      "contractAddress": null
    },
    {
      "type": "0x2",
      "status": "0x1",
      "cumulativeGasUsed": "0xf3a1a",
      "logs": [
        {
          "address": "0x360e68faccca8ca495c1b759fd9eee466db9fb32",
          "topics": [
            "0xdd466e674ea557f56295e2d0218a125ea4b4f0f6f3307b95f85e6110838d6438",
            "0xe20b00508f7a552a132ea2eb0d4a17810942e42c62e30822d9955fa282771d5c",
            "0x0000000000000000000000001c5b14cb76aee77b3c66a4ac56731d67bce17dfb",
            "0x000000000000000000000000a89c0904233aeccb5f6d8f43738891301222ac02"
          ],
          "data": "0x0000000000000000000000000000000000000000000000000000000000800000000000000000000000000000000000000000000000000000000000000000003c00000000000000000000000054facbb2bfe6c818fe8087a6d86557b73fb600c000000000000000000000000000000000000000010000000000000000000000000000000000000000000000000000000000000000000000000000000000000000",
          "blockHash": "0x6b36bd843b130e2e1f135ceaea462bcd3d4dae91d80eacfc5b35e94e9693404b",
          "blockNumber": "0x3a565bb",
          "blockTimestamp": "0x6a17bb47",
          "transactionHash": "0x51ff521b489161185f1bb45ccd881f7b4b9eb67538b2e06e5af86255ab8e1653",
          "transactionIndex": "0x6",
          "logIndex": "0x13",
          "removed": false
        },
        {
          "address": "0xcf1eafc6928dc385a342e7c6491d371d2871458b",
          "topics": [
            "0xddf252ad1be2c89b69c2b068fc378daa952ba7f163c4a11628f55a4df523b3ef",
            "0x0000000000000000000000000000000000000000000000000000000000000000",
            "0x00000000000000000000000034ff7335233faf283bc6ad63bf9fc2bb7dfb433a",
            "0x0000000000000000000000000000000000000000000000000000000000000cae"
          ],
          "data": "0x",
          "blockHash": "0x6b36bd843b130e2e1f135ceaea462bcd3d4dae91d80eacfc5b35e94e9693404b",
          "blockNumber": "0x3a565bb",
          "blockTimestamp": "0x6a17bb47",
          "transactionHash": "0x51ff521b489161185f1bb45ccd881f7b4b9eb67538b2e06e5af86255ab8e1653",
          "transactionIndex": "0x6",
          "logIndex": "0x14",
          "removed": false
        },
        {
          "address": "0x360e68faccca8ca495c1b759fd9eee466db9fb32",
          "topics": [
            "0xf208f4912782fd25c7f114ca3723a2d5dd6f3bcc3ac8db5af63baa85f711d5ec",
            "0xe20b00508f7a552a132ea2eb0d4a17810942e42c62e30822d9955fa282771d5c",
            "0x000000000000000000000000cf1eafc6928dc385a342e7c6491d371d2871458b"
          ],
          "data": "0xffffffffffffffffffffffffffffffffffffffffffffffffffffffffffff5038000000000000000000000000000000000000000000000000000000000000afc80000000000000000000000000000000000000000000000060f4da7fe284f5dea0000000000000000000000000000000000000000000000000000000000000cae",
          "blockHash": "0x6b36bd843b130e2e1f135ceaea462bcd3d4dae91d80eacfc5b35e94e9693404b",
          "blockNumber": "0x3a565bb",
          "blockTimestamp": "0x6a17bb47",
          "transactionHash": "0x51ff521b489161185f1bb45ccd881f7b4b9eb67538b2e06e5af86255ab8e1653",
          "transactionIndex": "0x6",
          "logIndex": "0x15",
          "removed": false
        },
        {
          "address": "0x1c5b14cb76aee77b3c66a4ac56731d67bce17dfb",
          "topics": [
            "0xddf252ad1be2c89b69c2b068fc378daa952ba7f163c4a11628f55a4df523b3ef",
            "0x00000000000000000000000034ff7335233faf283bc6ad63bf9fc2bb7dfb433a",
            "0x000000000000000000000000360e68faccca8ca495c1b759fd9eee466db9fb32"
          ],
          "data": "0x0000000000000000000000000000000000000000000000056bc75e2d63100000",
          "blockHash": "0x6b36bd843b130e2e1f135ceaea462bcd3d4dae91d80eacfc5b35e94e9693404b",
          "blockNumber": "0x3a565bb",
          "blockTimestamp": "0x6a17bb47",
          "transactionHash": "0x51ff521b489161185f1bb45ccd881f7b4b9eb67538b2e06e5af86255ab8e1653",
          "transactionIndex": "0x6",
          "logIndex": "0x16",
          "removed": false
        },
        {
          "address": "0xa89c0904233aeccb5f6d8f43738891301222ac02",
          "topics": [
            "0xddf252ad1be2c89b69c2b068fc378daa952ba7f163c4a11628f55a4df523b3ef",
            "0x00000000000000000000000034ff7335233faf283bc6ad63bf9fc2bb7dfb433a",
            "0x000000000000000000000000360e68faccca8ca495c1b759fd9eee466db9fb32"
          ],
          "data": "0x0000000000000000000000000000000000000000000000056bc75e2d63100000",
          "blockHash": "0x6b36bd843b130e2e1f135ceaea462bcd3d4dae91d80eacfc5b35e94e9693404b",
          "blockNumber": "0x3a565bb",
          "blockTimestamp": "0x6a17bb47",
          "transactionHash": "0x51ff521b489161185f1bb45ccd881f7b4b9eb67538b2e06e5af86255ab8e1653",
          "transactionIndex": "0x6",
          "logIndex": "0x17",
          "removed": false
        }
      ],
      "logsBloom": "0x00000000000000010000000000000000000000000000000000040000004800000000800000000000000000000800000000000000000000000040000000000000000000800000000001000008000000000000008000000000000000000000000000000000820000000000000000000800020000000000000040000010000000000010000001000088000000000000000010000001000000000000000000200000000004000000000000000000000000000804000001000000000000000002000000000002000000400400000000000000000004000000000000008040000020000000000000000000000004000000000004000000000000004240000028000028",
      "transactionHash": "0x51ff521b489161185f1bb45ccd881f7b4b9eb67538b2e06e5af86255ab8e1653",
      "transactionIndex": "0x6",
      "blockHash": "0x6b36bd843b130e2e1f135ceaea462bcd3d4dae91d80eacfc5b35e94e9693404b",
      "blockNumber": "0x3a565bb",
      "gasUsed": "0x77cc6",
      "effectiveGasPrice": "0x1312d01",
      "blobGasUsed": "0x1fef0",
      "from": "0x34ff7335233faf283bc6ad63bf9fc2bb7dfb433a",
      "to": "0xcf1eafc6928dc385a342e7c6491d371d2871458b",
      "contractAddress": null
    }
  ],
  "libraries": [],
  "pending": [],
  "returns": {},
  "timestamp": 1779940168975,
  "chain": 196,
  "commit": "1fbf955"
}